:100000000C945A000C9477000C9477000C947700B1
:100010000C9477000C9477000C9477000C94770084
:100020000C9477000C9477000C9477000C94770074
:100030000C9477000C94B6000C9477000C94770025
:100040000C9477000C9477000C9477000C94770054
:100050000C9477000C9477000C9477000C94770044
:100060000C9477000C9477000C9477000C94770034
:100070000C9477000C9477000C9477000C94770024
:100080000C9477000C9477000C9477000C94770014
:100090000C9477000C9477000C9477000C94770004
:1000A0000C9477000C9477000C9477000C947700F4
:1000B0000C94770011241FBECFEFD8E0DEBFCDBF78
:1000C00011E0A0E0B1E0E8ECF4E002C005900D9290
:1000D000A230B107D9F721E0A2E0B1E001C01D9242
:1000E000A533B207E1F70E9414010C9462020C944C
:1000F0000000ECE7F0E08081806480838FEA8093E9
:100100007A0086E080937B0080917A0086FDFCCFA8
:1001100080917800909179000895E1E8F0E0808185
:100120008260808381E080936F008FEC97E09093F2
:10013000850080938400789408951092C50087E626
:100140008093C40088E18093C10086E08093C20060
:100150000895FC0107C09091C00095FFFCCF8093EB
:10016000C600319680818111F6CF08951F920F92BB
:100170000FB60F9211242F933F934F935F936F937A
:100180007F938F939F93AF93BF93CF93DF93EF931F
:10019000FF93EAE7F0E080818064808380917A00B9
:1001A00084FFFCCFEAE7F0E0808180618083E8E7AC
:1001B000F0E08081809179006081718180E090E041
:1001C0000E94CD012AE037ED43EA51E40E94250167
:1001D0000E949701C62F660FDD0BCE5FDE4F8AE2CD
:1001E000888382E091E00E94A90080E091E00E9473
:1001F000A90080E288838FEC97E09093850080933C
:100200008400FF91EF91DF91CF91BF91AF919F91CA
:100210008F917F916F915F914F913F912F910F90AF
:100220000FBE0F901F90189541E350E060E270E020
:1002300082E091E00E945B02109234010E947900FA
:100240000E948D000E949D00FFCF0E9439010C94F6
:1002500021020E941A0258F00E94130240F029F471
:100260005F3F29F00C940A0251110C9455020C9432
:1002700010020E94320268F39923B1F3552391F3DF
:10028000951B550BBB27AA2762177307840738F005
:100290009F5F5F4F220F331F441FAA1FA9F335D062
:1002A0000E2E3AF0E0E832D091505040E695001C16
:1002B000CAF72BD0FE2F29D0660F771F881FBB1FD0
:1002C000261737074807AB07B0E809F0BB0B802DAE
:1002D000BF01FF2793585F4F3AF09E3F510578F0DA
:1002E0000C940A020C9455025F3FE4F3983ED4F359
:1002F000869577956795B795F7959F5FC9F7880FAE
:10030000911D9695879597F90895E1E0660F771FFF
:10031000881FBB1F621773078407BA0720F0621B90
:10032000730B840BBA0BEE1F88F7E09508950E94BB
:100330009E016894B1110C94550208950E943A02EE
:1003400088F09F5798F0B92F9927B751B0F0E1F096
:10035000660F771F881F991F1AF0BA95C9F714C046
:10036000B13091F00E945402B1E008950C9454020F
:10037000672F782F8827B85F39F0B93FCCF386957F
:1003800077956795B395D9F73EF4909580957095DC
:1003900061957F4F8F4F9F4F0895E89409C097FB59
:1003A0003EF490958095709561957F4F8F4F9F4F4C
:1003B0009923A9F0F92F96E9BB279395F695879590
:1003C00077956795B795F111F8CFFAF4BB0F11F453
:1003D00060FF1BC06F5F7F4F8F4F9F4F16C08823FA
:1003E00011F096E911C0772321F09EE8872F762F30
:1003F00005C0662371F096E8862F70E060E02AF071
:100400009A95660F771F881FDAF7880F969587955C
:1004100097F9089597F99F6780E870E060E0089584
:100420009FEF80EC089500240A941616170618060C
:100430000906089500240A941216130614060506E8
:100440000895092E0394000C11F4882352F0BB0F79
:1004500040F4BF2B11F460FF04C06F5F7F4F8F4FDC
:100460009F4F089557FD9058440F551F59F05F3F17
:1004700071F04795880F97FB991F61F09F3F79F0C6
:1004800087950895121613061406551FF2CF469548
:10049000F1DF08C0161617061806991FF1CF8695CA
:1004A0007105610508940895E894BB2766277727AE
:1004B000CB0197F90895DC0101C06D934150504084
:0804C000E0F70895F894FFCF66
:0204C8000A0028
:00000001FF
