:020000020000FC
:100000004AE0FEE1EEEEB1E0A0E4D2E0C0E00C9404
:02001000810F5E
:101EEE005641205273616573626D796C6320646F25
:101EFE0020656874403041F005911591200F311F17
:101F0E00761F981F4A95F6CFF999FECFD2BDC1BD67
:101F1E0020BDFA9AF99A5991F999FECFD2BDC1BD59
:101F2E0030BDFA9AF99A5991F999FECFD2BDC1BD39
:101F3E0070BDFA9AF99A5991F999FECFD2BDC1BDE9
:101F4E0090BDFA9AF99A59912D933D937D939D9355
:00000001FF
