:100000000C945A000C9498000C9498000C9498004E
:100010000C9498000C9498000C9498000C94980000
:100020000C9498000C9498000C9498000C949800F0
:100030000C9498000C9498000C9498000C949800E0
:100040000C9498000C9498000C9498000C949800D0
:100050000C9498000C9498000C9498000C949800C0
:100060000C9498000C9498000C9498000C949800B0
:100070000C9498000C9498000C9498000C949800A0
:100080000C9498000C9498000C9498000C94980090
:100090000C9498000C9498000C9498000C94980080
:1000A0000C9498000C9498000C9498000C94980070
:1000B0000C94980011241FBECFEFD8E0DEBFCDBF57
:0C00C0000E9466000C948D00F894FFCFA5
:1000CC0084B1806284B985B18F7D85B987B18B7F0E
:1000DC0087B988B1846088B93299FECF85B18062C6
:1000EC0085B92FEF87EA91E6215080409040E1F7E7
:1000FC0000C0000085B18F7D85B92FEF87EA91E6AE
:0E010C00215080409040E1F700C00000E5CF98
:10011A00EC010E949D000E949C00CE010E949E005C
:06012A00CE010E949A00C4
:040130000C9400002B
:040134000E946400C1
:02013800089528
:02013A00089526
:02013C00089524
:00000001FF
