:100000000C945D000C94CC000C94CC000C94CC00AF
:100010000C94CC000C94CC000C94CC000C94CC0030
:100020000C94CC000C9487000C94CC000C94CC0065
:100030000C94CC000C94CC000C94CC000C94CC0010
:100040000C94CC000C94CC000C94CC000C94CC0000
:100050000C94CC000C94CC000C94CC000C94CC00F0
:100060000C94CC000C94CC000C94CC000C94CC00E0
:100070000C94CC000C94CC000C94CC000C94CC00D0
:100080000C94CC000C94CC000C94CC000C94CC00C0
:100090000C94CC000C94CC000C94CC000C94CC00B0
:1000A0000C94CC000C94CC000C94CC000C94CC00A0
:1000B0000C94CC0001000102800011241FBECFEF80
:1000C000D8E0DEBFCDBFE4EBF0E040E017C0B59173
:1000D000A59135912591059107FD0CC095918591CC
:1000E000EF01F92FE82F05900D92A217B307D9F76A
:1000F000FE0104C01D92A217B307E1F7E93BF40724
:0E01000031F70E94AB000C94C100F894FFCFC1
:10010E001F920F920FB60F9211242F938F939F93DE
:10011E0080910001909101010196909301018093CD
:10012E000001803D974041F495B188E0892785B95B
:10013E0010920101109200019F918F912F910F90BB
:08014E000FBE0F901F901895E1
:1001560084B1886084B9E0EBF0E080818083E1EBD4
:10016600F0E0808184608083E0E7F0E08081816058
:0C017600808380EC8093B2007894FFCF6F
:10018200EC010E94D1000E94D000CE010E94D20058
:06019200CE010E94CE0028
:040198000C940000C3
:04019C000E94850038
:0201A0000895C0
:0201A2000895BE
:0201A4000895BC
:00000001FF
