:100000000C945A000C94A0000C9466000C94A00070
:100010000C94A0000C94A0000C94A0000C94A000E0
:100020000C94A0000C94A0000C94A0000C94A000D0
:100030000C94A0000C94A0000C94A0000C94A000C0
:100040000C94A0000C94A0000C94A0000C94A000B0
:100050000C94A0000C94A0000C94A0000C94A000A0
:100060000C94A0000C94A0000C94A0000C94A00090
:100070000C94A0000C94A0000C94A0000C94A00080
:100080000C94A0000C94A0000C94A0000C94A00070
:100090000C94A0000C94A0000C94A0000C94A00060
:1000A0000C94A0000C94A0000C94A0000C94A00050
:1000B0000C94A00011241FBECFEFD8E0DEBFCDBF4F
:0C00C0000E9482000C949500F894FFCF81
:1000CC001F920F920FB60F9211242F938F939F9321
:1000DC0085B18F7E85B92FEF8DE399E42150804057
:1000EC009040E1F700C000009F918F912F910F90ED
:0800FC000FBE0F901F90189534
:1001040084B1806184B98BB188608BB9E9E6F0E091
:1001140080818C6080838DB382608DBB789485B13F
:06012400806185B9FCCFEB
:10012A00EC010E94A5000E94A400CE010E94A60034
:06013A00CE010E94A200AC
:040140000C9400001B
:040144000E946400B1
:02014800089518
:02014A00089516
:02014C00089514
:00000001FF
