:100000000C945A000C94A1000C94A1000C94A10033
:100010000C94A1000C94A1000C94A1000C94A100DC
:100020000C94A1000C94A1000C94A1000C948400E9
:100030000C94A1000C94A1000C94A1000C94A100BC
:100040000C94A1000C94A1000C94A1000C94A100AC
:100050000C94A1000C94A1000C94A1000C94A1009C
:100060000C94A1000C94A1000C94A1000C94A1008C
:100070000C94A1000C94A1000C94A1000C94A1007C
:100080000C94A1000C94A1000C94A1000C94A1006C
:100090000C94A1000C94A1000C94A1000C94A1005C
:1000A0000C94A1000C94A1000C94A1000C94A1004C
:1000B0000C94A10011241FBECFEFD8E0DEBFCDBF4E
:0C00C0000E9466000C949600F894FFCF9C
:1000CC0084B1806184B9E0E8F0E080818083E1E86C
:1000DC00F0E080818D60808380E090EC90938900CB
:1000EC0080938800EFE6F0E08081826080837894D2
:0C00FC00B09BFECF86B3816086BBFACFBC
:100108001F920F920FB60F9211248F939F9395B160
:1001180080E1892785B99F918F910F900FBE0F902D
:040128001F90189577
:10012C00EC010E94A6000E94A500CE010E94A7002F
:06013C00CE010E94A300A9
:040142000C94000019
:040146000E946400AF
:02014A00089516
:02014C00089514
:02014E00089512
:00000001FF
