:100000000C945A000C948E000C948E000C948E006C
:100010000C948E000C948E000C948E000C948E0028
:100020000C948E000C948E000C948E000C948E0018
:100030000C948E000C948E000C948E000C948E0008
:100040000C948E000C948E000C948E000C948E00F8
:100050000C948E000C948E000C948E000C948E00E8
:100060000C948E000C948E000C948E000C948E00D8
:100070000C948E000C948E000C948E000C948E00C8
:100080000C948E000C948E000C948E000C948E00B8
:100090000C948E000C948E000C948E000C948E00A8
:1000A0000C948E000C948E000C948E000C948E0098
:1000B0000C948E0011241FBECFEFD8E0DEBFCDBF61
:0C00C0000E9466000C948300F894FFCFAF
:1000CC0084B1806284B914BC87EE86BD85B583602B
:1000DC0085BD80E090E0A89BFECF803127E292079F
:1000EC0031F495B180E2892785B980E090E00196E2
:0A00FC0027EE26BD21E025BBEECF64
:10010600EC010E9493000E949200CE010E9494008E
:06011600CE010E949000E2
:04011C000C9400003F
:040120000E946400D5
:0201240008953C
:0201260008953A
:02012800089538
:00000001FF
