:100000000C945A000C949D000C9466000C949D0076
:100010000C949D000C949D000C949D000C949D00EC
:100020000C949D000C949D000C949D000C949D00DC
:100030000C949D000C949D000C949D000C949D00CC
:100040000C949D000C949D000C949D000C949D00BC
:100050000C949D000C949D000C949D000C949D00AC
:100060000C949D000C949D000C949D000C949D009C
:100070000C949D000C949D000C949D000C949D008C
:100080000C949D000C949D000C949D000C949D007C
:100090000C949D000C949D000C949D000C949D006C
:1000A0000C949D000C949D000C949D000C949D005C
:1000B0000C949D0011241FBECFEFD8E0DEBFCDBF52
:0C00C0000E9482000C949200F894FFCF84
:1000CC001F920F920FB60F9211242F938F939F9321
:1000DC0085B18F7E85B92FEF8DE399E42150804057
:1000EC009040E1F700C000009F918F912F910F90ED
:0800FC000FBE0F901F90189534
:1001040084B1806184B98BB188608BB988E08093B5
:10011400690082E08DBB789485B1806185B9FCCF9C
:10012400EC010E94A2000E94A100CE010E94A30043
:06013400CE010E949F00B5
:04013A000C94000021
:04013E000E946400B7
:0201420008951E
:0201440008951C
:0201460008951A
:00000001FF
